{
  "transactions": [
    {
      "hash": "0xc2a06e0f176c66d04f8007eee6d94456c68c3c1992e5ce9e18034c20bc8b20bf",
      "transactionType": "CALL",
      "contractName": null,
      "contractAddress": "0x11affeac94b440c3c332813450db66fb3285bfb2",
      "function": "approve(address,uint256)",
      "arguments": [
        "0x9140a78c1A137c7fF1c151EC8231272aF78a99A4",
        "115792089237316195423570985008687907853269984665640564039457584007913129639935"
      ],
      "transaction": {
        "from": "0xc5b7b574ee84a9b59b475fe32eaf908c246d3859",
        "to": "0x11affeac94b440c3c332813450db66fb3285bfb2",
        "gas": "0x991d",
        "value": "0x0",
        "input": "0x095ea7b30000000000000000000000009140a78c1a137c7ff1c151ec8231272af78a99a4ffffffffffffffffffffffffffffffffffffffffffffffffffffffffffffffff",
        "nonce": "0x22",
        "chainId": "0x515"
      },
      "additionalContracts": [],
      "isFixedGasLimit": false
    },
    {
      "hash": "0xf681beee70766daeff7821e1de2b6c0cfff9bf32ca4de39b0ba2d49f64d7062d",
      "transactionType": "CALL",
      "contractName": null,
      "contractAddress": "0x9af9c6fe2a845354ecc3bdce1af9c427fb42ed70",
      "function": "approve(address,uint256)",
      "arguments": [
        "0x9140a78c1A137c7fF1c151EC8231272aF78a99A4",
        "115792089237316195423570985008687907853269984665640564039457584007913129639935"
      ],
      "transaction": {
        "from": "0xc5b7b574ee84a9b59b475fe32eaf908c246d3859",
        "to": "0x9af9c6fe2a845354ecc3bdce1af9c427fb42ed70",
        "gas": "0x991d",
        "value": "0x0",
        "input": "0x095ea7b30000000000000000000000009140a78c1a137c7ff1c151ec8231272af78a99a4ffffffffffffffffffffffffffffffffffffffffffffffffffffffffffffffff",
        "nonce": "0x23",
        "chainId": "0x515"
      },
      "additionalContracts": [],
      "isFixedGasLimit": false
    },
    {
      "hash": "0xc48d85c7351bf0d68ba8f251452ab41d046b7b4e6b7d7b06e7a4337e30f5e2fd",
      "transactionType": "CALL",
      "contractName": null,
      "contractAddress": "0x9140a78c1a137c7ff1c151ec8231272af78a99a4",
      "function": "swap((address,address,uint24,int24,address),(bool,int256,uint160),(bool,bool),bytes)",
      "arguments": [
        "(0x11aFfEac94B440C3c332813450db66fb3285BFB2, 0x9af9C6fe2a845354EcC3bDCe1af9c427Fb42Ed70, 3000, 60, 0x93786437631FB0716C77A76ceE94Cd45E27b0640)",
        "(true, -10000000000000000000, 4295128740)",
        "(false, false)",
        "0x"
      ],
      "transaction": {
        "from": "0xc5b7b574ee84a9b59b475fe32eaf908c246d3859",
        "to": "0x9140a78c1a137c7ff1c151ec8231272af78a99a4",
        "gas": "0x32ca9",
        "value": "0x0",
        "input": "0x2229d0b400000000000000000000000011affeac94b440c3c332813450db66fb3285bfb20000000000000000000000009af9c6fe2a845354ecc3bdce1af9c427fb42ed700000000000000000000000000000000000000000000000000000000000000bb8000000000000000000000000000000000000000000000000000000000000003c00000000000000000000000093786437631fb0716c77a76cee94cd45e27b06400000000000000000000000000000000000000000000000000000000000000001ffffffffffffffffffffffffffffffffffffffffffffffff7538dcfb7618000000000000000000000000000000000000000000000000000000000001000276a40000000000000000000000000000000000000000000000000000000000000000000000000000000000000000000000000000000000000000000000000000000000000000000000000000000000000000000000000000000000000000000001600000000000000000000000000000000000000000000000000000000000000000",
        "nonce": "0x24",
        "chainId": "0x515"
      },
      "additionalContracts": [],
      "isFixedGasLimit": false
    }
  ],
  "receipts": [
    {
      "status": "0x1",
      "cumulativeGasUsed": "0xfe53b",
      "logs": [
        {
          "address": "0x11affeac94b440c3c332813450db66fb3285bfb2",
          "topics": [
            "0x8c5be1e5ebec7d5bd14f71427d1e84f3dd0314c0f7b2291e5b200ac8c7c3b925",
            "0x000000000000000000000000c5b7b574ee84a9b59b475fe32eaf908c246d3859",
            "0x0000000000000000000000009140a78c1a137c7ff1c151ec8231272af78a99a4"
          ],
          "data": "0xffffffffffffffffffffffffffffffffffffffffffffffffffffffffffffffff",
          "blockHash": "0xb10b320f045b385e35f37e2717c06a4185d0a6bc79e9cb321f481cb6546b12f5",
          "blockNumber": "0x2c2df04",
          "blockTimestamp": "0x69b08c50",
          "transactionHash": "0xc2a06e0f176c66d04f8007eee6d94456c68c3c1992e5ce9e18034c20bc8b20bf",
          "transactionIndex": "0x7",
          "logIndex": "0x13",
          "removed": false
        }
      ],
      "logsBloom": "0x00000000000000000000000000000000000000000000000000000000080000000000000000000000000000000000000000000000000000000000000000200000000000000000000000000000000000000000200000000000004000000000000000000000000000000000000000000000000000000000000000000000000000000000000000000000000000000000000000000000000000000080000000000000020000000000000000010000000000004000000000000000000000000000000000080000000000000000000000000000000000000000000000000000001000000010000000000000000000000000000000000000000000000000000010000000",
      "type": "0x2",
      "transactionHash": "0xc2a06e0f176c66d04f8007eee6d94456c68c3c1992e5ce9e18034c20bc8b20bf",
      "transactionIndex": "0x7",
      "blockHash": "0xb10b320f045b385e35f37e2717c06a4185d0a6bc79e9cb321f481cb6546b12f5",
      "blockNumber": "0x2c2df04",
      "gasUsed": "0x68b2",
      "effectiveGasPrice": "0x7a121",
      "blobGasUsed": "0x9c40",
      "from": "0xc5b7b574ee84a9b59b475fe32eaf908c246d3859",
      "to": "0x11affeac94b440c3c332813450db66fb3285bfb2",
      "contractAddress": null,
      "daFootprintGasScalar": "0x190",
      "l1BaseFeeScalar": "0x7d0",
      "l1BlobBaseFee": "0x1",
      "l1BlobBaseFeeScalar": "0xdbba0",
      "l1Fee": "0x7d",
      "l1GasPrice": "0xb",
      "l1GasUsed": "0x640"
    },
    {
      "status": "0x1",
      "cumulativeGasUsed": "0x104ded",
      "logs": [
        {
          "address": "0x9af9c6fe2a845354ecc3bdce1af9c427fb42ed70",
          "topics": [
            "0x8c5be1e5ebec7d5bd14f71427d1e84f3dd0314c0f7b2291e5b200ac8c7c3b925",
            "0x000000000000000000000000c5b7b574ee84a9b59b475fe32eaf908c246d3859",
            "0x0000000000000000000000009140a78c1a137c7ff1c151ec8231272af78a99a4"
          ],
          "data": "0xffffffffffffffffffffffffffffffffffffffffffffffffffffffffffffffff",
          "blockHash": "0xb10b320f045b385e35f37e2717c06a4185d0a6bc79e9cb321f481cb6546b12f5",
          "blockNumber": "0x2c2df04",
          "blockTimestamp": "0x69b08c50",
          "transactionHash": "0xf681beee70766daeff7821e1de2b6c0cfff9bf32ca4de39b0ba2d49f64d7062d",
          "transactionIndex": "0x8",
          "logIndex": "0x14",
          "removed": false
        }
      ],
      "logsBloom": "0x0000000100000000000000000000000000000000000000000000000008000000000000000000000000000000000000000000000000000000000000000020000000000000000000000000000000000000000000000000000000c000000000000000000000000000000000000000000000000000000000000000000000000000000000000000000000000000000000000000000000000000000080000000000000020000000000000000010000000000004000000000000000000000000000000000080000000000000000000000000000000000000000000000000000000000000010000000000000000000010000000000000000000000000000000000000000",
      "type": "0x2",
      "transactionHash": "0xf681beee70766daeff7821e1de2b6c0cfff9bf32ca4de39b0ba2d49f64d7062d",
      "transactionIndex": "0x8",
      "blockHash": "0xb10b320f045b385e35f37e2717c06a4185d0a6bc79e9cb321f481cb6546b12f5",
      "blockNumber": "0x2c2df04",
      "gasUsed": "0x68b2",
      "effectiveGasPrice": "0x7a121",
      "blobGasUsed": "0x9c40",
      "from": "0xc5b7b574ee84a9b59b475fe32eaf908c246d3859",
      "to": "0x9af9c6fe2a845354ecc3bdce1af9c427fb42ed70",
      "contractAddress": null,
      "daFootprintGasScalar": "0x190",
      "l1BaseFeeScalar": "0x7d0",
      "l1BlobBaseFee": "0x1",
      "l1BlobBaseFeeScalar": "0xdbba0",
      "l1Fee": "0x7d",
      "l1GasPrice": "0xb",
      "l1GasUsed": "0x640"
    },
    {
      "status": "0x1",
      "cumulativeGasUsed": "0x13e9be",
      "logs": [
        {
          "address": "0x00b036b58a818b1bc34d502d3fe730db729e62ac",
          "topics": [
            "0x40e9cecb9f5f1f1c5b9c97dec2917b7ee92e57ba5563708daca94dd84ad7112f",
            "0x8ce1a1acc43a26bcfa1b17ddd32181874d666709404887f54372b32df8c83fdb",
            "0x0000000000000000000000009140a78c1a137c7ff1c151ec8231272af78a99a4"
          ],
          "data": "0xffffffffffffffffffffffffffffffffffffffffffffffff7538dcfb7618000000000000000000000000000000000000000000000000000083aee857ba12de390000000000000000000000000000000000000000f888a6b5b828eda1648ce03400000000000000000000000000000000000000000000003635c9adc5dea00000fffffffffffffffffffffffffffffffffffffffffffffffffffffffffffffdaf0000000000000000000000000000000000000000000000000000000000000bb8",
          "blockHash": "0xb10b320f045b385e35f37e2717c06a4185d0a6bc79e9cb321f481cb6546b12f5",
          "blockNumber": "0x2c2df04",
          "blockTimestamp": "0x69b08c50",
          "transactionHash": "0xc48d85c7351bf0d68ba8f251452ab41d046b7b4e6b7d7b06e7a4337e30f5e2fd",
          "transactionIndex": "0xa",
          "logIndex": "0x16",
          "removed": false
        },
        {
          "address": "0x93786437631fb0716c77a76cee94cd45e27b0640",
          "topics": [
            "0xc99190d562dc877bc95c39720ac66dc5d4f9c2ef3a3410251a579493b8409cd0",
            "0x8ce1a1acc43a26bcfa1b17ddd32181874d666709404887f54372b32df8c83fdb"
          ],
          "data": "0x000000000000000000000000000000000000000000000034a10b40d7ce631ea400000000000000000000000000000000000000000000000336e6ad82ad0450ed0000000000000000000000000000000000000000000000000000000000000001",
          "blockHash": "0xb10b320f045b385e35f37e2717c06a4185d0a6bc79e9cb321f481cb6546b12f5",
          "blockNumber": "0x2c2df04",
          "blockTimestamp": "0x69b08c50",
          "transactionHash": "0xc48d85c7351bf0d68ba8f251452ab41d046b7b4e6b7d7b06e7a4337e30f5e2fd",
          "transactionIndex": "0xa",
          "logIndex": "0x17",
          "removed": false
        },
        {
          "address": "0x11affeac94b440c3c332813450db66fb3285bfb2",
          "topics": [
            "0xddf252ad1be2c89b69c2b068fc378daa952ba7f163c4a11628f55a4df523b3ef",
            "0x000000000000000000000000c5b7b574ee84a9b59b475fe32eaf908c246d3859",
            "0x00000000000000000000000000b036b58a818b1bc34d502d3fe730db729e62ac"
          ],
          "data": "0x0000000000000000000000000000000000000000000000008ac7230489e80000",
          "blockHash": "0xb10b320f045b385e35f37e2717c06a4185d0a6bc79e9cb321f481cb6546b12f5",
          "blockNumber": "0x2c2df04",
          "blockTimestamp": "0x69b08c50",
          "transactionHash": "0xc48d85c7351bf0d68ba8f251452ab41d046b7b4e6b7d7b06e7a4337e30f5e2fd",
          "transactionIndex": "0xa",
          "logIndex": "0x18",
          "removed": false
        },
        {
          "address": "0x9af9c6fe2a845354ecc3bdce1af9c427fb42ed70",
          "topics": [
            "0xddf252ad1be2c89b69c2b068fc378daa952ba7f163c4a11628f55a4df523b3ef",
            "0x00000000000000000000000000b036b58a818b1bc34d502d3fe730db729e62ac",
            "0x000000000000000000000000c5b7b574ee84a9b59b475fe32eaf908c246d3859"
          ],
          "data": "0x00000000000000000000000000000000000000000000000083aee857ba12de39",
          "blockHash": "0xb10b320f045b385e35f37e2717c06a4185d0a6bc79e9cb321f481cb6546b12f5",
          "blockNumber": "0x2c2df04",
          "blockTimestamp": "0x69b08c50",
          "transactionHash": "0xc48d85c7351bf0d68ba8f251452ab41d046b7b4e6b7d7b06e7a4337e30f5e2fd",
          "transactionIndex": "0xa",
          "logIndex": "0x19",
          "removed": false
        }
      ],
      "logsBloom": "0x0000000100000000000200000000000000800000000000000000000008000000000000000000000000000000000000200000000004100000000000000008000000000000000000000200000800000000000020000000002000c000000000000000000000000000001000000000004000000000000000000000000010000020000000000000000000000000000008000000000000000000000080000000000000000000000000000000010000000000004000000000000020000000000000000000080002000000000000000000000000000000002000000000000000001000000000000000000000004000010000000000000000000002001000000010000010",
      "type": "0x2",
      "transactionHash": "0xc48d85c7351bf0d68ba8f251452ab41d046b7b4e6b7d7b06e7a4337e30f5e2fd",
      "transactionIndex": "0xa",
      "blockHash": "0xb10b320f045b385e35f37e2717c06a4185d0a6bc79e9cb321f481cb6546b12f5",
      "blockNumber": "0x2c2df04",
      "gasUsed": "0x22bab",
      "effectiveGasPrice": "0x7a121",
      "blobGasUsed": "0x101d0",
      "from": "0xc5b7b574ee84a9b59b475fe32eaf908c246d3859",
      "to": "0x9140a78c1a137c7ff1c151ec8231272af78a99a4",
      "contractAddress": null,
      "daFootprintGasScalar": "0x190",
      "l1BaseFeeScalar": "0x7d0",
      "l1BlobBaseFee": "0x1",
      "l1BlobBaseFeeScalar": "0xdbba0",
      "l1Fee": "0xcf",
      "l1GasPrice": "0xb",
      "l1GasUsed": "0xa5b"
    }
  ],
  "libraries": [],
  "pending": [],
  "returns": {},
  "timestamp": 1773177936284,
  "chain": 1301,
  "commit": "6c27f7d"
}